{
  "contractName": "Counter",
  "abi": [
    {
      "constant": false,
      "inputs": [
        {
          "name": "x",
          "type": "uint256"
        }
      ],
      "name": "initialize",
      "outputs": [],
      "payable": false,
      "stateMutability": "nonpayable",
      "type": "function",
      "signature": "0xfe4b84df"
    },
    {
      "constant": true,
      "inputs": [],
      "name": "get",
      "outputs": [
        {
          "name": "",
          "type": "uint256"
        }
      ],
      "payable": false,
      "stateMutability": "view",
      "type": "function",
      "signature": "0x6d4ce63c"
    },
    {
      "constant": false,
      "inputs": [],
      "name": "increment",
      "outputs": [],
      "payable": false,
      "stateMutability": "nonpayable",
      "type": "function",
      "signature": "0xd09de08a"
    },
    {
      "constant": false,
      "inputs": [],
      "name": "decrement",
      "outputs": [],
      "payable": false,
      "stateMutability": "nonpayable",
      "type": "function",
      "signature": "0x2baeceb7"
    }
  ],
  "bytecode": "0x608060405234801561001057600080fd5b50610156806100206000396000f3fe608060405260043610610062576000357c0100000000000000000000000000000000000000000000000000000000900463ffffffff1680632baeceb7146100675780636d4ce63c1461007e578063d09de08a146100a9578063fe4b84df146100c0575b600080fd5b34801561007357600080fd5b5061007c6100fb565b005b34801561008a57600080fd5b50610093610109565b6040518082815260200191505060405180910390f35b3480156100b557600080fd5b506100be610112565b005b3480156100cc57600080fd5b506100f9600480360360208110156100e357600080fd5b8101908080359060200190929190505050610120565b005b600160005403600081905550565b60008054905090565b600160005401600081905550565b806000819055505056fea165627a7a723058203232c8ec56633e81e44c5975f5d87e2d99831e38eb153a3e1288fb190154c27d0029",
  "source": "pragma solidity ^0.5.0; // imagine a big integer counter that the whole world could share\ncontract Counter {\n\n    uint storedData;\n\n    function initialize (uint x) public {\n        storedData = x;\n    }\n\n    function get() view public returns (uint) {\n        return storedData;\n    }\n\n    function increment () public {\n        storedData = storedData + 1;\n        return;\n    }\n\n    function decrement () public {\n        storedData = storedData - 1;\n        return;\n    }\n\n}\n",
  "sourcePath": "/home/tj/Desktop/counterDapp/contracts/Counter.sol",
  "compiler": {
    "name": "solc",
    "version": "0.5.0+commit.1d4f565a.Emscripten.clang"
  },
  "schemaVersion": "3.0.2",
  "updatedAt": "2019-03-15T17:16:03.552Z",
  "devdoc": {
    "methods": {}
  },
  "userdoc": {
    "methods": {}
  }
}